:020000040000FA
:100000000C9463000C948B000C948B000C948B006C
:100010000C948B000C948B000C948B000C948B0034
:100020000C948B000C948B000C948B000C94E303C9
:100030000C948B000C948B000C948B000C948B0014
:100040000C9499030C948B000C9467030C9441035B
:100050000C948B000C948B000C948B000C948B00F4
:100060000C948B000C948B006364696E6F707375D5
:1000700078585B0000000000240027002A000000E0
:100080000000250028002B000404040404040404D8
:100090000202020202020303030303030102040833
:1000A00010204080010204081020010204081020E2
:1000B0000000000800020100000304070000000027
:1000C00000000000BA0411241FBECFEFD8E0DEBF4D
:1000D000CDBF11E0A0E0B1E0EAEDF5E102C005908E
:1000E0000D92A633B107D9F722E0A6E3B1E001C033
:1000F0001D92A033B207E1F710E0C3E6D0E004C0E0
:100100002197FE010E949307C236D107C9F70E94CA
:10011000F6040C94EB0A0C940000AF92BF92CF92BD
:10012000DF92EF92FF920F931F93CF93DF936C01B7
:100130007B018B01040F151FEB015E01AE18BF0898
:10014000C017D10759F06991D601ED91FC9101904A
:10015000F081E02DC6010995892B79F7C501DF9162
:10016000CF911F910F91FF90EF90DF90CF90BF90B4
:10017000AF900895FC01538D448D252F30E0842FDE
:1001800090E0821B930B541710F0CF9608950197BF
:100190000895FC01918D828D981761F0A28DAE0FAC
:1001A000BF2FB11D5D968C91928D9F5F9F73928F33
:1001B00090E008958FEF9FEF0895FC01918D828D5F
:1001C000981731F0828DE80FF11D858D90E008952C
:1001D0008FEF9FEF0895FC01918D228D892F90E084
:1001E000805C9F4F821B91098F739927089585E842
:1001F00091E00E94EB0021E0892B09F420E0822F9E
:10020000089580E090E0892B29F00E94F700811189
:100210000C9400000895FC01A48DA80FB92FB11D06
:10022000A35ABF4F2C91848D90E001968F7399272C
:10023000848FA689B7892C93A089B1898C9183700A
:1002400080648C93938D848D981306C00288F38903
:10025000E02D80818F7D80830895EF92FF920F9330
:100260001F93CF93DF93EC0181E0888F9B8D8C8D62
:1002700098131AC0E889F989808185FF15C09FB756
:10028000F894EE89FF896083E889F9898081837019
:10029000806480839FBF81E090E0DF91CF911F91C8
:1002A0000F91FF90EF900895F62E0B8D10E00F5FE9
:1002B0001F4F0F731127E02E8C8D8E110CC00FB6BF
:1002C00007FCFACFE889F989808185FFF5CFCE0157
:1002D0000E940B01F1CFEB8DEC0FFD2FF11DE35AC6
:1002E000FF4FF0829FB7F8940B8FEA89FB898081DA
:1002F0008062CFCFCF93DF93EC01888D8823B9F054
:10030000AA89BB89E889F9898C9185FD03C0808120
:1003100086FD0DC00FB607FCF7CF8C9185FFF2CF9D
:10032000808185FFEDCFCE010E940B01E9CFDF91E7
:10033000CF91089590E0FC01E055FF4F2491FC011E
:10034000E456FF4F3491FC01E857FF4FE491EE2350
:10035000C9F0222339F0233001F1A8F4213019F13A
:10036000223029F1F0E0EE0FFF1FE258FF4FA59178
:10037000B4918FB7F894EC91611126C030953E236B
:100380003C938FBF08952730A9F02830C9F024305E
:1003900049F7809180008F7D03C0809180008F7726
:1003A00080938000DFCF84B58F7784BDDBCF84B5A9
:1003B0008F7DFBCF8091B0008F778093B000D2CF3C
:1003C0008091B0008F7DF9CF3E2BDACF3FB7F89404
:1003D0008091610190916201A0916301B0916401EB
:1003E00026B5A89B05C02F3F19F00196A11DB11D90
:1003F0003FBFBA2FA92F982F8827BC01CD01620FCC
:10040000711D811D911D42E0660F771F881F991F86
:100410004A95D1F708958F929F92AF92BF92CF9253
:10042000DF92EF92FF920E94E6014B015C018FE0A8
:10043000C82ED12CE12CF12C0E94E6016819790913
:100440008A099B09683E734081059105A8F321E064
:10045000C21AD108E108F10888EE880E83E0981EE0
:10046000A11CB11CC114D104E104F10429F7FF90CF
:10047000EF90DF90CF90BF90AF909F908F900895B6
:10048000CF92DF92EF92FF92CF93DF93EC01603235
:1004900082E07807CCF5653B710514F064EB70E001
:1004A000898128E830E0281B310987FD3395220F28
:1004B000331F220F331F6901330FEE08FF088A81B3
:1004C00028E532E0281B310987FD3395220F331FC1
:1004D000220F331F032E000C440B550B2C193D0922
:1004E0004E095F09DB0177FF02C0B0E0A0E00E9487
:1004F0004E0724EB30E040E050E00E942407C20E9B
:10050000D31EE41EF51EB601E881EC3070F529819A
:1005100088E890E0821B910927FD9395880F991F29
:10052000880F991F681779077CF02A8188E592E087
:10053000821B910927FD9395880F991F880F991F9A
:10054000681779070CF4CB010297880F991F4FB7F2
:10055000F8942E2F30E0F901EE0FFF1FE20FF31F8A
:10056000E85CFE4F928381834FBFDF91CF91FF9074
:10057000EF90DF90CF900895CF93DF93DC018C91C3
:100580008C3008F06DC0CB01FB01E456FF4F249185
:1005900088579F4FFC018491882399F090E0880F41
:1005A000991FFC01EC58FF4FC591D491FC01E25812
:1005B000FF4F859194918FB7F894E881E22BE883FF
:1005C0008FBF8C91282F30E0F901EE0FFF1FE20F53
:1005D000F31FE85CFE4F962F9F736081607C692B50
:1005E000608311961C92119712961C9212972CE020
:1005F000622F0E948707829FB001112430E020E023
:10060000AB01420F531FFA01EE0FFF1FE40FF51F5E
:10061000E85CFE4F908196FD16C02F5F3F4F2C3057
:10062000310571F781110FC01092800082E0809334
:1006300081001092850010928400B19A80916F0021
:10064000826080936F00EC918E2F90E0FC01EE0FA2
:10065000FF1FE80FF91FE85CFE4F808180648083F4
:100660008C91DF91CF910895FC0101900020E9F772
:100670003197AF01481B590BBC0185E891E00C9400
:100680008D001F920F920FB60F9211242F933F935C
:100690004F935F936F937F938F939F93AF93BF938A
:1006A000EF93FF9385E891E00E940B01FF91EF919A
:1006B000BF91AF919F918F917F916F915F914F917A
:1006C0003F912F910F900FBE0F901F9018951F9282
:1006D0000F920FB60F9211242F938F939F93EF9346
:1006E000FF93E0919501F09196018081E0919B014B
:1006F000F0919C0182FD1BC0908180919E018F5FD3
:100700008F7320919F01821741F0E0919E01F0E0EC
:10071000EB57FE4F958F80939E01FF91EF919F9134
:100720008F912F910F900FBE0F901F901895808181
:10073000F4CF1F920F920FB60F9211242F933F9375
:100740008F939F93AF93BF9380915D0190915E01D2
:10075000A0915F01B091600130915C0123E0230F13
:100760002D3758F50196A11DB11D20935C01809392
:100770005D0190935E01A0935F01B0936001809151
:10078000610190916201A0916301B09164010196B1
:10079000A11DB11D8093610190936201A09363013B
:1007A000B0936401BF91AF919F918F913F912F9131
:1007B0000F900FBE0F901F90189526E8230F0296FA
:1007C000A11DB11DD2CF1F920F920FB60F9211240F
:1007D0002F933F934F935F936F937F938F939F9349
:1007E000AF93BF93CF93DF93EF93FF938091360145
:1007F000C0913701D0E087FF24C01092850010928D
:100800008400809136018F5F80933601809136019C
:10081000082E000C990B8C179D0724F4809136014B
:100820008C30C4F1809184009091850004968034CE
:100830009C4908F47AC080918400909185000496C8
:1008400076C080913601082E000C990B8C179D07FD
:10085000C4F6E09136018E2FEE0F990BFC01EE0FDE
:10086000FF1FE80FF91FE85CFE4F808186FFC9CFAC
:10087000E09136018E2FEE0F990BFC01EE0FFF1F5A
:10088000E80FF91FE85CFE4F808160E08F730E94E3
:100890009A01B7CF2091840030918500E091360114
:1008A0008E2FEE0F990BFC01EE0FFF1FE80FF91FC3
:1008B000E85CFE4F81819281820F931F90938900A3
:1008C00080938800E09136018E2FEE0F990BFC018A
:1008D000EE0FFF1FE80FF91FE85CFE4F808186FFD7
:1008E00011C0E09136018E2FEE0F990BFC01EE0F37
:1008F000FF1FE80FF91FE85CFE4F808161E08F73F6
:100900000E949A01FF91EF91DF91CF91BF91AF913A
:100910009F918F917F916F915F914F913F912F9117
:100920000F900FBE0F901F90189580E49CE9909354
:100930008900809388008FEF80933601E3CFFC011C
:10094000909137019C3098F481E0890F80933701B2
:100950009083892F90E0FC01EE0FFF1FE80FF91F35
:10096000E85CFE4F88EB9BE09283818308958FEFD4
:1009700080830895E5E8F1E01382128288EE93E027
:10098000A0E0B0E084839583A683B78384E091E000
:100990009183808385EC90E09587848784EC90E058
:1009A0009787868780EC90E0918B808B81EC90E03C
:1009B000938B828B82EC90E0958B848B86EC90E01D
:1009C000978B868B118E128E138E148E8BE292E093
:1009D0000E949F0488E292E00E949F0485E292E0D8
:1009E0000E949F0482E292E00C949F04CF93DF93D5
:1009F000CDB7DEB7A8970FB6F894DEBF0FBECDBF58
:100A0000789484B5826084BD84B5816084BD85B5E9
:100A1000826085BD85B5816085BD80916E008160F5
:100A200080936E001092810080918100826080939B
:100A3000810080918100816080938100809180009D
:100A40008160809380008091B10084608093B100C8
:100A50008091B00081608093B00080917A008460C2
:100A600080937A0080917A00826080937A008091EE
:100A70007A00816080937A0080917A008068809308
:100A80007A001092C100E0919501F091960182E008
:100A90008083E0919101F09192011082E0919301A5
:100AA000F09194018FEC808310929D01E091990167
:100AB000F0919A0186E08083E0919701F09198018E
:100AC000808180618083E0919701F091980180811D
:100AD00088608083E0919701F0919801808180681F
:100AE0008083E0919701F091980180818F7D8083D0
:100AF0006BE070E08BE292E00E94BC026AE070E082
:100B000088E292E00E94BC0269E070E085E292E037
:100B10000E94BC0266E070E082E292E00E94BC02A9
:100B200010926601109265010091650110916601B5
:100B3000053B1105ECF4B8018BE292E00E94400203
:100B4000B80188E292E00E944002B80185E292E09A
:100B50000E944002B80182E292E00E9440020E949C
:100B60000B020F5F1F4F1093660100936501DCCFEE
:100B700084EB90E09093660180936501009165019C
:100B80001091660117FD1DC0B8018BE292E00E9432
:100B90004002B80188E292E00E944002B80185E27A
:100BA00092E00E944002B80182E292E00E9440027C
:100BB0000E940B0201501109109366010093650118
:100BC000DDCF82E191E00E9434038BE191E00E944D
:100BD00034037E0182E2E80EF11C6E0195E2C90E3B
:100BE000D11C88E2682E81E0782E9AE0892E912C23
:100BF000A12CB12C85E891E00E94EB001816190693
:100C00000CF0E9C085E891E00E94C90020918301C1
:100C100030918401F901E958FE4F8A3059F02B30A8
:100C2000310540F480832F5F3F4F30938401209340
:100C30008301E0CF10828EE191E00E94340387E7C8
:100C400091E00E9434038BE191E00E943403ECE2D6
:100C5000F0E0F8A7EFA3BE01695D7F4F87E791E061
:100C60000E94F8060FE611E0009701F1BC01C701F0
:100C70000E949907DF92CF927F926F92FF92EF923C
:100C80000E94A0078DA19EA1F801819391938F01ED
:100C9000BE01695D7F4F90E080E00E94F8060F90F2
:100CA0000F900F900F900F900F90DECF80916F01FB
:100CB00090917001009709F473C090936E01809336
:100CC0006D01809171019091720190936C018093FC
:100CD0006B01809173019091740190936A018093EC
:100CE00069018091750190917601909368018093DC
:100CF00067018BE291E00E94340320906D013090F7
:100D00006E01032C000C4408550857FE4EC06DE2DE
:100D100085E891E00E942D0122273327A90122199D
:100D200033094409550919A28E010F5D1F4FCA01ED
:100D3000B901A50194010E945607605DF801629314
:100D40008F01211531054105510589F7011511055F
:100D500019F0C8010E9434038BE191E00E94340332
:100D600060916D0170916E018BE292E00E944002F1
:100D700060916B0170916C0188E292E00E944002E8
:100D80006091690170916A0185E292E00E944002DF
:100D9000609167017091680182E292E00E944002D6
:100DA000109284011092830125CFA201910119A212
:100DB0008E010F5D1F4FCA01B901A50194010E9468
:100DC0005607605DF80162938F01211531054105D9
:100DD000510589F7BBCF80E090E0892B09F40ACF59
:100DE0000E94F700882309F405CF0E94000002CF7B
:100DF0004EE252E00E94FD060895FA01A191B081F1
:100E0000009719F41097E1F0CD01DC01CD010D90B0
:100E1000002011F4C00113C0FB012191222319F01D
:100E20002015D9F7F3CFFB012191201519F41E925B
:100E3000119606C02223C1F70D900020A1F7D00122
:100E4000FA01A193B0830895052E97FB1EF4009438
:100E50000E943B0757FD07D00E94560707FC03D0AE
:100E60004EF40C943B0750954095309521953F4F9B
:100E70004F4F5F4F089590958095709561957F4F86
:100E80008F4F9F4F08950E947807A59F900DB49FA4
:100E9000900DA49F800D911D11240895B7FF0C940F
:100EA00043070E944307821B930B0895A1E21A2E69
:100EB000AA1BBB1BFD010DC0AA1FBB1FEE1FFF1FFE
:100EC000A217B307E407F50720F0A21BB30BE40B4E
:100ED000F50B661F771F881F991F1A9469F7609595
:100EE0007095809590959B01AC01BD01CF0108954F
:100EF000A29FB001B39FC001A39F700D811D11245B
:100F0000911DB29F700D811D1124911D0895991B93
:100F100079E004C0991F961708F0961B881F7A95F0
:100F2000C9F780950895EE0FFF1F0590F491E02D0D
:100F30000994FB01DC0101900D920020E1F7089576
:100F4000AEE0B0E0E6EAF7E00C94C40A85E08C83FA
:100F50008B899C899A838983AE01495E5F4F6D8935
:100F60007E89CE0101960E9444092E96E2E00C94FF
:100F7000E00A20FD09C0FC0123FD05C022FF02C0DC
:100F80007383628351834083089544FD17C046FDF7
:100F90001DC0DB01FC01AA0FBB1FEE1FFF1F109439
:100FA000D1F76A0F7B1F8E1F9F1F660F771F881F49
:100FB000991F620F711D811D911D089533E0660F09
:100FC000771F881F991F3150D1F7F3CF34E0F7CF47
:100FD0000F931F93CF93DF938C01C8010E945D0A8A
:100FE000EC0197FD08C00E94490A892BB1F7B801AE
:100FF000CE010E94990ACE01DF91CF911F910F91EE
:1010000008958F929F92AF92BF92EF92FF920F93AB
:101010001F93CF93DF938C01D62F7A01B22E0E94BB
:101020005D0A9C0133272B32310529F02D32310521
:10103000A9F46894B7F8D15061F480E0DF91CF91C2
:101040001F910F91FF90EF90BF90AF909F908F9066
:101050000895C8010E945D0A97FDEFCFCB2DCD7F8B
:101060002B2D2073F9F48033E9F4AA24AA94AD0E51
:1010700089F0C8010E945D0A97FD0CC0282F2F7DC2
:10108000283561F4C264D25029F0C8010E945D0A7B
:1010900097FF08C0812C912C54011BC0B6FE2BC0B9
:1010A000C260DA2D812C912C540120ED280F2830BC
:1010B00028F1C4FD09C02A3008F1C6FF05C02F7D04
:1010C0003FEE320F3630C8F0B8010E94990AC1FFD6
:1010D000B4CFC7FF08C0B094A09490948094811CB2
:1010E000911CA11CB11C2C2FB501A401C7010E94A9
:1010F000B90781E0A3CFC261D4CF27504C2FC501DF
:10110000B4010E94C5074B015C01C260D15009F3D4
:10111000C8010E945D0A97FFC8CFD9CFA0E2B0E016
:10112000E4E9F8E00C94B90A5C01962E7A01CE014C
:1011300001966C0180E2F60111928A95E9F7F501BA
:10114000B381890130E020E0712C812CA0E041E0E6
:1011500050E0F801B3FD8591B3FF8191982F8F0185
:10116000811107C010E000E0C801A096EDE00C94EA
:10117000D50A8E3519F42115310541F1A217130650
:101180004CF48D3549F18D3229F4811006C0882444
:1011900083941DC0882009F464C0E92FE695E69584
:1011A000E695EC0DFD2DF11D892F8770BA0101C068
:1011B000660F8A95EAF78081682B6083791651F073
:1011C000971510F49F5FE9CF9150E7CFA1E02F5F13
:1011D0003F4FBFCF812CFBCF882019F08E818062DA
:1011E0008E83AA2359F0F6019E012F5D3F4F808127
:1011F000809580833196E217F307C9F7882483949A
:10120000C5010E945D0A97FD16C0E82FE695E69598
:10121000E695EC0DFD2DF11D208130E0AC0147700D
:10122000552702C0359527954A95E2F720FD06C05F
:10123000B5010E94990A882069F094CFE114F10465
:1012400029F0F7018083C70101967C019A94812CD3
:101250009110D6CFE114F10409F486CFF701108282
:1012600083CFE82FE695E695E695EC0DFD2DF11D73
:10127000982F9770BA0101C0660F9A95EAF790818E
:10128000692B6083782EA3CFB0E0A0E0EAE4F9E018
:101290000C94B70A6C01EB015A01FC01178216820B
:1012A000512CF601E380FE01E3FC8591E3FE819180
:1012B000182FEF018823E9F090E00E94490A892B5A
:1012C00021F0C6010E94E807ECCF153241F4FE017F
:1012D000E3FC1591E3FE1191EF01153269F4C601AB
:1012E0000E945D0A97FD8EC01817D9F2B6010E94C0
:1012F000990A852D90E08AC000E01A3231F4E3FCAF
:101300001591E3FE1191EF0101E0F12C20ED210F89
:101310002A3048F101FF37C0FF2059F31836B1F1E8
:101320001C3609F43DC0112321F3612F70E088E6DB
:1013300090E00E94520A892BE1F2912C812C00FD51
:1013400006C0F50180809180C50102965C011E36C1
:1013500079F5F6014681578170E060E0202FC401E5
:101360000E94B9079ECF02606F2D70E090E080E090
:1013700040E20E94C507F62EFE01E3FC1591E3FE54
:101380001191EF01C3CFFF24FA94C8CFFE01E3FC13
:101390001591E3FE1191EF01183609F0C4CF0860F2
:1013A0000460FE01E3FC1591E3FE1191EF01BBCF58
:1013B0001336C1F401FD02C0FF24F394C6010E945C
:1013C0005D0A97FD1FC08114910429F0F401808308
:1013D000C40101964C01FA94F110F0CF00FD61CFE9
:1013E00053945FCF1B35B9F49E01A4016F2DC60144
:1013F0000E948E08EC01892B89F7F60183818073A6
:1014000009F477CF8FEF9FEF511073CFCDB7DEB7D1
:10141000EFE00C94D30AC6010E94E80797FDF2CFD3
:101420001F36A9F130F4143641F0193639F0006452
:1014300005C01337B9F01537D1F70062202FA4018A
:101440006F2DC6010E9401088111C8CFD6CF81142B
:10145000910429F0F4016082C40101964C01FA94D0
:10146000FF2071F0C6010E945D0A3C0197FD08C093
:101470000E94490A892B59F3B601C3010E94990AB7
:101480008114910409F4AACFF4011082A7CF00615E
:10149000D5CF91110C94B10A803219F08950855042
:1014A000C8F70895FC010590061621F00020D9F731
:1014B000C00108953197CF010895CF93DF93EC01D8
:1014C0002B8120FF1AC026FF0CC02F7B2B838E811F
:1014D0009F8101969F838E838A8190E0DF91CF91D7
:1014E000089522FF18C0E881F9818081082E000C40
:1014F000990B009729F420622B838FEF9FEFEECF9B
:101500003196F983E8832E813F812F5F3F4F3F83E0
:101510002E839927E3CFEA85FB85099597FFF3CFC3
:101520002B81019621F080E2822B8B83E6CF80E134
:10153000FBCFFB01238120FF11C026FD0FC08F3F91
:10154000980771F082832F7D206423832681378161
:101550002150310937832683992708958FEF9FEF14
:1015600008959927882708952F923F924F925F926E
:101570006F927F928F929F92AF92BF92CF92DF92A3
:10158000EF92FF920F931F93CF93DF93CDB7DEB708
:10159000CA1BDB0B0FB6F894DEBF0FBECDBF09949C
:1015A0002A88398848885F846E847D848C849B84F3
:1015B000AA84B984C884DF80EE80FD800C811B8101
:1015C000AA81B981CE0FD11D0FB6F894DEBF0FBE30
:1015D000CDBFED010895F894FFCF000000002D016C
:1015E0008D00BA007A01EB00C900DD004245524887
:1015F0004153494C000D0A0041524455494E4F2079
:101600003A002564004241434B504F53203A0000BA
:107E0000112484B714BE81FFF0D085E080938100F7
:107E100082E08093C00088E18093C10086E0809377
:107E2000C20080E18093C4008EE0C9D0259A86E02C
:107E300020E33CEF91E0309385002093840096BBD3
:107E4000B09BFECF1D9AA8958150A9F7CC24DD24C4
:107E500088248394B5E0AB2EA1E19A2EF3E0BF2EE7
:107E6000A2D0813461F49FD0082FAFD0023811F036
:107E7000013811F484E001C083E08DD089C08234E0
:107E800011F484E103C0853419F485E0A6D080C0E4
:107E9000853579F488D0E82EFF2485D0082F10E0AE
:107EA000102F00270E291F29000F111F8ED06801E7
:107EB0006FC0863521F484E090D080E0DECF843638
:107EC00009F040C070D06FD0082F6DD080E0C81688
:107ED00080E7D80618F4F601B7BEE895C0E0D1E017
:107EE00062D089930C17E1F7F0E0CF16F0E7DF06D8
:107EF00018F0F601B7BEE89568D007B600FCFDCFD4
:107F0000A601A0E0B1E02C9130E011968C91119780
:107F100090E0982F8827822B932B1296FA010C0160
:107F200087BEE89511244E5F5F4FF1E0A038BF0790
:107F300051F7F601A7BEE89507B600FCFDCF97BE46
:107F4000E89526C08437B1F42ED02DD0F82E2BD052
:107F50003CD0F601EF2C8F010F5F1F4F84911BD097
:107F6000EA94F801C1F70894C11CD11CFA94CF0C13
:107F7000D11C0EC0853739F428D08EE10CD085E9AC
:107F80000AD08FE07ACF813511F488E018D01DD067
:107F900080E101D065CF982F8091C00085FFFCCF94
:107FA0009093C60008958091C00087FFFCCF809118
:107FB000C00084FD01C0A8958091C6000895E0E648
:107FC000F0E098E1908380830895EDDF803219F02E
:107FD00088E0F5DFFFCF84E1DECF1F93182FE3DFCA
:107FE0001150E9F7F2DF1F91089580E0E8DFEE27F6
:047FF000FF270994CA
:027FFE00040479
:00000001FF
